{
  "_format": "hh-sol-artifact-1",
  "contractName": "MyContract",
  "sourceName": "contracts/contract.sol",
  "abi": [
    {
      "inputs": [],
      "name": "getContractBalance",
      "outputs": [
        {
          "internalType": "uint256",
          "name": "",
          "type": "uint256"
        }
      ],
      "stateMutability": "view",
      "type": "function"
    },
    {
      "inputs": [
        {
          "internalType": "address payable",
          "name": "_recipient",
          "type": "address"
        },
        {
          "internalType": "uint256",
          "name": "_amount",
          "type": "uint256"
        }
      ],
      "name": "transferEther",
      "outputs": [],
      "stateMutability": "payable",
      "type": "function"
    }
  ],
  "bytecode": "0x608060405234801561001057600080fd5b506102c1806100206000396000f3fe6080604052600436106100295760003560e01c806305b1137b1461002e5780636f9fb98a1461004a575b600080fd5b610048600480360381019061004391906101a4565b610075565b005b34801561005657600080fd5b5061005f610103565b60405161006c91906101f3565b60405180910390f35b478111156100b8576040517f08c379a00000000000000000000000000000000000000000000000000000000081526004016100af9061026b565b60405180910390fd5b8173ffffffffffffffffffffffffffffffffffffffff166108fc829081150290604051600060405180830381858888f193505050501580156100fe573d6000803e3d6000fd5b505050565b600047905090565b600080fd5b600073ffffffffffffffffffffffffffffffffffffffff82169050919050565b600061013b82610110565b9050919050565b61014b81610130565b811461015657600080fd5b50565b60008135905061016881610142565b92915050565b6000819050919050565b6101818161016e565b811461018c57600080fd5b50565b60008135905061019e81610178565b92915050565b600080604083850312156101bb576101ba61010b565b5b60006101c985828601610159565b92505060206101da8582860161018f565b9150509250929050565b6101ed8161016e565b82525050565b600060208201905061020860008301846101e4565b92915050565b600082825260208201905092915050565b7f496e73756666696369656e742062616c616e6365000000000000000000000000600082015250565b600061025560148361020e565b91506102608261021f565b602082019050919050565b6000602082019050818103600083015261028481610248565b905091905056fea26469706673582212201e8793aa36656e0edea920f8d2bc729066157c8d193b15f074802f94dedd101964736f6c63430008120033",
  "linkReferences": {},
  "deployedLinkReferences": {}
}